:020000040800F2
:10000000C8230020F1010008BF2E00085329000872
:10001000BD2E0008A3090008893B0008000000006D
:100020000000000000000000000000001D3000087B
:10003000650B0008000000000D300008AD3300081B
:100040000B0200080B0200080B0200080B0200085C
:100050000B0200080B020008670B0008930B000856
:10006000990B00089F0B0008A50B00080B02000865
:100070000B0200080B0200080B020008B50A00087A
:100080000B0200080B0200080B0200080B0200081C
:100090000B0200080B0200080B020008AB0B000863
:1000A0000B0200080B0200080B0200080B020008FC
:1000B000813400088D3400080B0200080B02000890
:1000C0000B0200080B0200080B0200080B020008DC
:1000D000113000080B0200080B0200080B02000898
:1000E0006D0B00080B0200080B0200080B02000851
:1000F0000B0200080B0200080B0200080B020008AC
:100100000B0200080B0200080B0200080B0200089B
:100110000B0200080B0200080B0200080B0200088B
:100120000B0200080B0200080B0200080B0200087B
:100130000B0200080B0200080B0200080B0200086B
:100140000B0200080B0200080B0200080B0200085B
:100150000B0200080B0200080B0200080B0200084B
:100160000B0200080B0200080B0200080B0200083B
:100170000B0200080B020008000000000000000055
:100180000B0200080B0200080B0200080B0200081B
:100190000B0200080B020008000000000B02000820
:1001A0000B0200080B020008000000000000000025
:1001B0000B02000800000000000000000B02000815
:1001C0000B0200080B0200080B0200080B020008DB
:1001D0000B0200080B020008DFF810D000F034FB1F
:1001E00000480047B15B0008AFF30080C82300203F
:1001F0000648804706480047FEE7FEE7FEE7FEE7C1
:10020000FEE7FEE7FEE7FEE7FEE7FEE771340008E3
:10021000D90100082DE9F05F0546002092469B4673
:1002200088460646814640241BE02846414647460C
:10023000224600F0ADF953465A46C01A914110D3F8
:1002400011461846224600F094F92D1A67EB010872
:100250004F4622460120002100F08BF917EB0009E0
:100260004E41201EA4F10104DFDC484631462A46F7
:100270004346BDE8F09F40EA01039B0703D009E035
:1002800008C9121F08C0042AFAD203E011F8013B82
:1002900000F8013B521EF9D27047D2B201E000F8DB
:1002A000012B491EFBD270470022F6E710B513461A
:1002B0000A4604461946FFF7F0FF204610BD421CCF
:1002C00010F8011B0029FBD1801A70472DE9FE4F61
:1002D00081EA030404F0004421F0004100944FF04F
:1002E000000B23F0004350EA01045ED052EA0304FD
:1002F0005BD0C3F30A54C1F30A552C44A4F2F3347F
:100300000194A0FB0254C1F3130141F48011C3F323
:10031000130343F4801301FB024400FB034E840AE1
:10032000970A44EA815447EA8357A4FB0768029579
:100330008D0A05FB07854FEA932C04FB0C54270517
:10034000029D4FEA065847EA1637B5EB08056EEBF3
:10035000070C870E920E47EA811742EA8312A7FB29
:100360000201B6EB0B0164EB00042B0D43EA0C33E6
:100370005E1844EB1C50DA465146E7FB0201C5F318
:1003800013044FEA0B3343EA14534FEA0432019C3F
:1003900043EA0603A4F10C040294009CCDE900B4E6
:1003A00000F015F903B0BDE8F08F00200146F9E731
:1003B0002DE9F04D81EA030404F0004B21F00045E3
:1003C00014464FF0000A23F0004150EA050220D005
:1003D00054EA01021DD0C5F30A570246C5F31303C0
:1003E000C1F31300C1F30A5640F4801543F480139F
:1003F000A7EB0608101BD64608F2FD3873EB050084
:1004000002D308F1010801E092185B41B8F1000F36
:1004100003DA00200146BDE8F08D00204FF4801182
:10042000064684460EE0171B73EB050705D3121B27
:1004300063EB050306434CEA010C49084FEA300020
:1004400092185B4150EA0107EDD152EA030012D045
:1004500082EA040083EA0501084305D0101BAB4182
:1004600006D20122002306E000224FF0004302E002
:100470006FF0010253101AEB06004CEB085110EB21
:100480000A0041EB0B01BDE8F04D00F091B80EB54C
:10049000C10F80EAE0700844CA07002140F23343EC
:1004A0008DE80E000A460B4600F091F803B000BD3F
:1004B00070B5C1F30A5201F000450024C1F31301E5
:1004C00040F2FF3341F480119A4201DA002070BDFE
:1004D00040F233439A42A2F2334203DC524200F02C
:1004E00057F800E090402C43F1D0404270BDC1F37A
:1004F0000A5210B5C1F3130140F2FF3341F48011E9
:100500009A4201DA002010BD40F233439A42A2F22F
:10051000334203DC524200F03BF810BD904010BD66
:1005200000F0004230F000400AD0C10D01F56071CA
:10053000C0F3160042EA0151C20840071143704758
:1005400000200146704730B50B46014600202022AE
:10055000012409E021FA02F59D4205D303FA02F5D0
:10056000491B04FA02F52844151EA2F10102F1DC30
:1005700030BD202A04DB203A00FA02F10020704747
:100580009140C2F1200320FA03F3194390407047D1
:10059000202A04DB203A21FA02F00021704721FAD8
:1005A00002F3D040C2F1200291400843194670473F
:1005B00010B5141E73F1000408DA401C41F100016B
:1005C00092185B411A4301D120F0010010BD2DE9C2
:1005D000F04D92469B4611B1B1FA81F202E0B0FAB9
:1005E00080F220329046FFF7C4FF04460F4640EAEF
:1005F0000A0041EA0B0153465A46084313D01146FC
:1006000053EA010019D0C8F140025046FFF7C0FF7D
:1006100005460E46504659464246FFF7AAFF084394
:1006200005D0012004E020463946BDE8F08D0020C9
:10063000054346EAE0762C4337430A986305E40A0B
:10064000A0EB08000022FD0A44EA47540A3002D514
:1006500000200146E9E7010510196941DDE9084577
:1006600000196941BDE8F04DA2E72DE9FE4F804633
:1006700081EA0300C00F0C46009021F0004123F0F6
:100680000045B8EB0200A94105D2404621469046FC
:100690001C460B46024623F00040104347D0270D6E
:1006A000C7F30A00C3F30A510290401A0190402890
:1006B0006BDAC3F3130040F4801B0098924620B11C
:1006C0000023D2EB030A63EB0B0B01985946C0F1F0
:1006D00040025046FFF74DFF06460D46504659462C
:1006E000019A00F0C3F810EB08006141002487EA8A
:1006F000115284EAE7731A4340D0009A62B3019A18
:10070000012A4FEA075215DC001B61EB02014FF092
:10071000004202EA0752CDE90042001C41F5801177
:1007200032462B46FFF753FF03B0BDE8F08F40463B
:100730002146F9E7001B61EB0201001C41F5801323
:1007400000185B412018A2F5001747EB030140EAAF
:10075000D570B6196D4111E06D084FEA360645EACD
:10076000C0754FEA0752001B61EB0201001C41F506
:10077000801149084FEA30000019514132462B469A
:1007800003B0BDE8F04FFFF713BF0098012240000F
:100790000023D0EB020263EBE073009821464FEA9E
:1007A000E074B8EB000061EB0401E9E783F000437B
:1007B0005BE781F0004158E770B521F00043034347
:1007C0000CD0C1F30A550024D5EB040564EB0403F7
:1007D000D617AD1AB34102DB0020014670BD2018C8
:1007E00041EB025170BDC1F30A52C1F3130140F253
:1007F000FF3341F480119A4202DA0020014670472B
:1008000040F233439A42A2F2334202DC5242FFF7F3
:10081000BFBEFFF7AEBE000030B5041E71F100048C
:1008200004DB4FF00044404264EB0101141E73F1FD
:10083000000405DB1C464FF00043524263EB040307
:10084000994208BF904230BD064C074D06E0E06873
:1008500040F0010394E8070098471034AC42F6D307
:10086000FFF7BEFC785E0008985E0008202A06DBD1
:10087000CB17203A41FA02F043EAE07306E041FA6E
:1008800002F3D040C2F1200291400843194670475C
:100890002DE9F04D00231A461B1A8A4103DB002084
:1008A0000146BDE8F08DC1F30A52C1F3130141F4D2
:1008B00080154FF0000BD10702D100186D41521E78
:1008C0000027044640F2FF11384601EB620A3E461B
:1008D0008046024600204FF48011FFF759FEC219EE
:1008E0007141BB1846EB0100B4EB030C75EB000C37
:1008F00004D3E41A65EB000517460E46241908F1E7
:1009000001006D4180463428E3DDF91946EB06000D
:10091000091BA84103D24FF0FF32134601E0002229
:1009200013461BEB070046EB0A51BDE8F04DFFF7FD
:100930003FBE0EB540F2334102910021CDE90011D6
:100940000A460B46FFF743FE03B000BD70B58C1896
:1009500010F8015B15F0070301D110F8013B2A11D3
:1009600006D110F8012B03E010F8016B01F8016BC0
:100970005B1EF9D12B0705D40023521E0DD401F8BC
:10098000013BFAE710F8013BCB1A921C03E013F885
:10099000015B01F8015B521EF9D5A142D8D30020BA
:1009A00070BDFEE70146002040292AD010DC08294E
:1009B0002BD007DC01292CD0022928D0042900D112
:1009C0004520704710291ED02029FAD142207047B7
:1009D000B1F5006F11D006DC802910D0B1F5806F21
:1009E000F5D13F207047B1F5805F04D0B1F5005FCD
:1009F000F8D13C2070473D2070473E207047402092
:100A0000704741207047432070474420704746207C
:100A10007047472070470000092802DB9FED080A55
:100A200070470849F7EE000A01EB8000F0EE601A0B
:100A300090ED001A40EE011A80EEA10A7047000006
:100A4000000000004400002010B590B00A46FFF7F7
:100A5000A9FF11680BA201EB410100EB81042346C1
:100A60004021684603F092F86846FFF728FC82B2FE
:100A7000642369460E4801F013FFE0B202F020FA49
:100A800010B010BD5B494E464F5D20546865204E46
:100A90006F746520256420486173204265656E206F
:100AA0005472696767657265642E0D0A0000000064
:100AB0007C1B0020014800F0C3B800008C1A002005
:100AC00001681823CAB2103AB2FBF3F2054B6FF378
:100AD0000901032A9B5CC36500D9091D816508468D
:100AE00070470000A85C000810B5014600208B6923
:100AF0008A6A4FF0C07453B1B3F5005F15D072B17C
:100B0000012A0CD0022A0AD0032A09D104E01AB122
:100B1000012A06D0022A03D1C96AC90100D50120E1
:100B200010BDC96AA142FAD010BD002AF7D0012A2F
:100B3000F2D0022AF3D0032AF3D010BD30B50468F6
:100B4000256825F480252560046863608368402B50
:100B5000036803D099600068C26030BD9A60006885
:100B6000C16030BD7047012000F0F4B910B54FF4FA
:100B7000806000F0EFF94FF4006000F0EBF94FF403
:100B8000805000F0E7F9BDE810404FF4005000F04D
:100B9000E1B9022000F0DEB9042000F0DBB9082042
:100BA00000F0D8B9102000F0D5B910B5202000F021
:100BB000D1F9402000F0CEF9BDE81040802000F0CF
:100BC000C9B972B6FEE700000749002000EBC00279
:100BD00001EB8202127B002A04D0401C0C28F5DBBA
:100BE0004FF0FF30704700009418002010B54538D2
:100BF000FFF74DFC9FED0B1B53EC112BFFF7D8FBC0
:100C000041EC110B9FED090B03F002F89FED091B5E
:100C100051EC100B53EC112BFFF758FB074AC2E9BC
:100C2000020110BD0000000000002840000000008C
:100C3000000000400000000000807B400000002019
:100C40002DE9F84304464FF00009CDF800906348C1
:100C50004FF41651A56D0068B0FBF1F72E6894F8BB
:100C60005C10082000FA01F131420FD021680A68B7
:100C700052070BD50A6822F004020A6094F85C104F
:100C80008840A860606D40F00100606594F85C10D9
:100C90004FF0010808FA01F0304208D02168496994
:100CA000090604D5A860606D40F00200606594F804
:100CB0005C1004208840304208D021680968890708
:100CC00004D5A860606D40F00400606594F85C1085
:100CD00010208840304218D021680968090714D5CF
:100CE000A86020680168490304D50068000308D59E
:100CF000A16C07E00168C90503D4016821F008016F
:100D00000160216C09B12046884794F85C102020CE
:100D10008840304231D021680968C9062DD5A860C5
:100D200094F8350005282068016806D0490347D5A6
:100D3000006800031DD4616C1CE021F01601016005
:100D40002068416921F080014161206C08B9A06CE4
:100D500020B12068016821F00801016094F85C105E
:100D60003F208840A86084F8358084F83490216D55
:100D70001FE0E16B09B120468847606D00282BD049
:100D8000606DC00714D0052084F835002068016824
:100D900021F0010101600098401C0090B84203D886
:100DA00020680068C007F6D184F8358084F8349054
:100DB000E16C002910D001B02046BDE8F04308479F
:100DC0000168C905D5D4016821F01001016084F8DB
:100DD000358084F83490CCE7BDE8F8838C0000209F
:100DE0002DE9F041044600F0B9F906465CB1022055
:100DF00084F83500002584F834502068016821F01B
:100E0000010101600DE00120BDE8F08100F0A6F9CC
:100E1000801B052805D920206065032084F8350053
:100E2000F2E720680068C007F0D122681168204806
:100E30000140D4E901031843D4E90336334318438E
:100E400063691843A3691843E3691843236A184385
:100E50000843616A042903D1D4E90B1319430843F9
:100E6000106020684069666A20F0070130460E4332
:100E7000012704280CD1A06A0643E06A40B120464D
:100E8000FFF732FE20B14020606584F83570BAE784
:100E9000206846612046FFF713FE94F85C203F214E
:100EA00091408160656584F835700020ACE70000F2
:100EB0003F8010E02DE9F0410446866D90F8340043
:100EC000002501280DD0012084F8340094F83570F5
:100ED0000020012F07D084F8340002252846BDE801
:100EE000F0810220FBE7022784F835706065204618
:100EF000FFF724FE94F85C103F208840B060206823
:100F0000016841F016010160206C20B12068016881
:100F100041F0080101602068016841F001010160B1
:100F2000DCE7000070B5044600F018F90546601CC7
:100F300002D004480078044400F010F9401BA0429D
:100F4000FAD370BD800000200149FFF77DBD00008D
:100F500074000020044910B50A68024202D00860FB
:100F6000FFF7F2FF10BD0000143C01402DE9F84FDF
:100F7000DFF8ACA1002201240AF1040B03254FF095
:100F80000F090BF1040E00BF0B6804FA02F63340A0
:100F9000B3426ED10F7907F00307012F01D0022F62
:100FA00016D187684FEA420805FA08FC27EA0C07C1
:100FB000D1F80CC00CFA08FC4CEA070CC0F808C0C9
:100FC0004768B7430E79C6F3001696403E43466025
:100FD0000E79F643B6070AD0C6684FEA420C05FA06
:100FE0000CF7BE438F6807FA0CF73743C7600E79DA
:100FF00006F00306022E10D1D60800EB8608D8F8BA
:10100000206057074FEAD76C09FA0CF7BE430F6907
:1010100007FA0CF73743C8F8207006684FEA420C0D
:1010200005FA0CF7BE430F7907F0030707FA0CF730
:10103000374307604E6816F4403F6BD0394E37682F
:1010400047F480473760366822F0030706F480468D
:101050000096354E07EB060CDCF8086897074FEA58
:10106000177809FA08F7BE43304FB84202D100277B
:101070001FE04FE02E4FB84201D1012719E02D4F5C
:10108000B84201D1022714E02B4FB84201D1032707
:101090000FE02A4FB84201D104270AE0284FB84296
:1010A00001D1052705E0274FB84201D1062700E00E
:1010B000072707FA08F73743CCF80878DAF8006012
:1010C0005746D1F804C09E435FEACC3C00D51E438E
:1010D0003E60DBF800605F46D1F804C09E435FEAE3
:1010E0008C3C00D51E433E60DEF800607746D1F8A8
:1010F00004C09E435FEACC2C00D51E433E60084FDF
:101100000C373E68D1F804C09E435FEA8C2C00D5B2
:101110001E433E60521C102AFFF436AFBDE8F88F24
:10112000003C0140443802400030014000000240D1
:101130000004024000080240000C0240001002407F
:1011400000140240001802400069084000D001204D
:1011500070470AB1816170470904FBE70148806864
:1011600070470000800000202DE9FF410446006820
:10117000816800917749784E4FF04027884201D12D
:10118000324600E03A4692680192406888460290F2
:1011900001D1304600E038464068039060684FF067
:1011A0000105B0F5007F1CD0D8B1900705D5039894
:1011B000000602D5204601F0FDFB0098C0070FD0C5
:1011C000029840067FD521682046CA68E16A8B1CD8
:1011D000E3620A80618E491E6186618E002967D0B4
:1011E00071E00098800719D50298000616D5616A4B
:1011F00020468A1C626222680988D160618D491E7E
:101200006185618D51B901684A6822F0A0024A6087
:10121000418E19B980F8415000F0A0F80198C0073C
:1012200005D00398400602D5204601F093FB0198B3
:10123000400622D5039880061FD52168414501D17B
:10124000304600E03846406820F0600101D1304669
:1012500000E0384641602068416821F0A00141600B
:101260002068C1688068019084F84150606C40F04B
:1012700002006064204600F072F80098000767D50D
:101280000298800664D52068416821F0A001416081
:101290002168414501D1304600E03846406820F0E1
:1012A000600000D03E46706020688068009043E097
:1012B00001684A6822F060024A60418D19B980F8DD
:1012C000415000F04BF8009840061ED50298800669
:1012D0001BD52068416821F06001416021684145CB
:1012E00001D1304600E03846406820F0A00101D12D
:1012F000304600E03846416084F84150606C40F070
:1013000002006064204600F02AF8019800071FD50B
:10131000039880061CD52168414501D1304600E084
:101320003846406820F0A00000D03E46706020683B
:10133000416821F06001416084F84150606C40F0E8
:101340000400606404B02046BDE8F04100F007B836
:10135000BDE8FF810038004000340040704770470E
:10136000416B08472DE9F047040005D094F841008F
:101370004FF0000918B109E00120BDE8F08784F8BA
:1013800040905B486063204600F0BCF8022784F878
:1013900041702068C16940F6BF7821EA0801C16147
:1013A000206807626069534D4FF4007A022837D0F5
:1013B000E06860B12026A068202800D87600206868
:1013C000A84202D04C49884203D1012002E01026F5
:1013D000F1E7022000F01EFB216951451DD1E168B3
:1013E00009B1B10000E0F100B0FBF1F000EB8000CA
:1013F00061694000B0FBF1F0401D0A21B0FBF1F043
:1014000000F00101401A40080902821EFE2A09D399
:10141000606C40F010006064AEE7B0FBF6F0E5E70A
:101420000220002122690843024320680262D4E9B5
:1014300001100143A269E068104322680143D369A7
:1014400023EA0803194341F40061D161A1683029FE
:1014500001D0B02904D12168CA6942F48052CA611E
:10146000216A012939D125496163236824494FF054
:101470004022AB4201D10B4600E01346DB6923EA70
:10148000080301D1084600E01046C3612068A84265
:1014900001D1084600E0104607622368AB4201D143
:1014A000084600E01046C06986B2606850451BD00F
:1014B000D0B100202789B4F80CC047EA0C07B4F873
:1014C00018C04CEA000C47EA0C07B8B2304340F4AD
:1014D0000060AB4200D01146C861C4F844900120BE
:1014E00084F84100002048E74FF48070E2E70000F4
:1014F0006B2A000800380040003C004069110008D9
:1015000000340040F0B587B0064614216846FEF767
:10151000CBFE2E493068884255D12D480025016800
:1015200041F4804101600068294900F4804010398D
:101530000590086840F004000860086800F00400A6
:101540000590086840F0020008600868022400F076
:101550000200059008208DE831000527CDE90357EA
:1015600069461C48FFF702FDB8028DE83100CDE95D
:10157000035769461848FFF7F9FC194C1748C4E9A6
:1015800000054020C4E902050001206140006061BF
:101590008000A0614011C4E90705042060620120B9
:1015A000C4E90A0520462563FFF71AFC08B1FFF7D6
:1015B00008FBB463002211462420A66300F02AF938
:1015C000242000F019F907B0F0BD000000380040F9
:1015D00040380240000802400004024070600240AF
:1015E0008C1A00207047000070B5044681B17AB1B2
:1015F00094F84000012809D0012684F8406094F84E
:1016000041000025012805D084F84050022070BD1B
:10161000012070BD032084F8410065646162206888
:10162000C06900F0070003281DD005281BD02285C3
:101630006285A16B19480864A16B1948C863A16B46
:101640001848C864238D2268616A0C32A06BFFF7CA
:1016500031FC78B154F8440F40F0080044F8040914
:1016600066702570D4E74FF6FF7000EA42002085CF
:101670006085DEE72068C169490503D4C16941F48A
:101680008061C16120684168890703D4416841F0E5
:101690000201416084F84050002070BD612A0008BA
:1016A0003D2A0008152A000810B590B004460BA288
:1016B0004021684602F06AFA6846FEF700FE82B2F0
:1016C00064236946094801F0EBF80949206888421B
:1016D00001D104F041FA10B010BD0000493253208E
:1016E000436F6D706C6574650D0A00007C1B0020F3
:1016F0000038004010B590B004460BA24021684667
:1017000002F044FA6846FEF7DAFD82B264236946C5
:101710000A4801F0C5F80A492068884201D104F05E
:101720001BFA10B010BD00004932532048616C66AE
:1017300020436F6D706C6574650D0A007C1B002082
:101740000038004002488168027811448160704787
:10175000800000200B4810B5016841F40071016061
:10176000016841F480610160016841F480710160A9
:10177000032000F06FF8002000F006F800F024F8D5
:10178000002010BD003C024070B50D4D04464FF4E2
:101790007A712878B1FBF0F00A490968B1FBF0F0E2
:1017A00000F0EAFD48B9102C07D200222146501E55
:1017B00000F030F800206C6070BD012070BD0000AA
:1017C000800000208C0000200A4808B5016841F420
:1017D00080410160006800F4804000900548001FCF
:1017E000016841F080510160006800F08050009075
:1017F00008BD000044380240002809DB00F01F0249
:10180000012191404009800000F1E020C0F8001162
:1018100070470000F0B40E4B1B680C46C3F3022364
:10182000C3F10705042D00D90425191D072901D28C
:10183000002300E0DB1E012606FA05F1491E2140C7
:1018400099409E40761E16403143F0BC02F0D0B95C
:101850000CED00E0064900F0070208684FF6FF03B0
:10186000184040EA0220034A104308607047000015
:101870000CED00E00000FA0501220168C0F8FC232D
:10188000002280F8F423886940F000608861486D88
:10189000024A104348650020704700000300001012
:1018A0002DE9F0418AB0040005D094F8BD03266804
:1018B000002520B108E001200AB0BDE8F08184F8DD
:1018C000BC53204600F064F8032084F8BD03F06B9D
:1018D000C00500D42561206802F082F804F11001EF
:1018E000282288466846FEF7C6FC94E80F0001F0FF
:1018F00057FF0226C8BB0021206802F0A1F8002093
:1019000001270EE0C0EBC00104EB810181F83D70BE
:1019100001F83C0FC880CD708D60CD60401CC0B216
:101920004D6161688142EDD8002011E0C0EBC0013B
:1019300004EB810181F8FD5181F8FC0181F8FF5130
:10194000C1F80452C1F80852401CC0B2C1F810528C
:1019500061688142EAD8282241466846FEF78BFC3E
:1019600094E80F0001F084FF10B184F8BD63A2E792
:1019700084F8385084F8BD73606A012802D120468B
:10198000FFF77AFF206801F065FF002094E7000070
:1019900030B587B0044614216846FEF785FC206800
:1019A000B0F1A04F30D119480024016841F0010185
:1019B00001600068164D00F0010005904FF4E850FA
:1019C00000900220CDE90104032003900A20049036
:1019D00069462846FFF7CAFA6815CDE9000469464A
:1019E00028460294FFF7C2FA0848001D016841F03A
:1019F0008001016005481430016841F480410160B4
:101A0000006800F48040059007B030BD30380240D7
:101A100000000240F0B5344C314A314907460020FD
:101A20002F4E304D6300083A8839012F0FD0022F16
:101A30001ED1366816F0C05643D0B6F1006F18D0EC
:101A4000B6F1805F29D0B6F1C05F11D10CE03668E5
:101A500016F0C06635D0B6F1007F0AD0B6F1806FBF
:101A60001BD0B6F1C06F03D10868400227D52046CD
:101A7000F0BD2846F0BD08684002106800F03F0045
:101A800028D5B4FBF0F01168C1F388114143106808
:101A9000C0F30270B1FBF0F0F0BD086840020868C6
:101AA00000F03F0019D5B4FBF0F00A68C2F38812C9
:101AB00042430868C0F30270B2FBF0F0F0BD184674
:101AC000F0BD10684002D6D5106800F03F00B5FBAD
:101AD000F0F0D8E7B3FBF0F0D5E7B3FBF0F0E4E7C4
:101AE0008C3802400080BB0000127A002DE9F84FCC
:101AF000044600780027C34DC00708D02868E16974
:101B000020F0C06008432860E06900B90127207810
:101B1000800708D52868216A20F0C0500843286053
:101B2000206A00B90127208881046FF0FF0015D5D5
:101B30002968A26C21F4401111432960A16C19B1EC
:101B4000B1F5001F02D009E0012707E029686269AA
:101B500021F4F85100EB0222114329602188490445
:101B600015D52968E26C21F4400111432960E16C2C
:101B700019B1B1F5000F02D009E0012707E029688B
:101B8000626921F4F85100EB0220014329602078BA
:101B90004FF00009000755D59A484C38016841F0CC
:101BA000805101600068DFF8608200F08050009092
:101BB000D8F8001041F48071C8F80010FFF7CEFA91
:101BC000064604E0FFF7CAFA801B02286FD8D8F84F
:101BD0000000C005F6D58B4E1C3E306810F44070F6
:101BE0001FD0A18C01F4407181421AD030680122CB
:101BF00020F4407185480260C0F800903160306880
:101C0000C0070ED0FFF7AAFA804641F2883A05E0F5
:101C1000FFF7A4FAA0EB0801514548D830688007C7
:101C2000F6D5616A7748C1F301228438032A36D099
:101C3000016821F4F81101603068A18CC1F30B0137
:101C4000084330602078DFF8C8A1400703D594F836
:101C50005410CAF8E01120786E4EC00605D53068E1
:101C6000E16A20F440000843306020784FF00068BB
:101C7000800609D53068216B20F000600843306091
:101C8000206B404500D101272078400605D53068FB
:101C9000A16A20F080500843306067B908E002680C
:101CA0005D4B22F4F81219400A430260C4E773E066
:101CB0002068802877D1DFF864B1CBF86890FFF70F
:101CC0004DFA504F81468C3F06E000BFFFF746FAC1
:101CD000A0EB090002285FD838680001F6D4216D16
:101CE000CAF8D81020684E49C20701D0E2697AB11B
:101CF000820701D5226A5AB1820602D5226B42457B
:101D000006D040060FD5A06A68B9206B40450AD1BD
:101D1000D4E9010240EA8210227B237C120642EAC7
:101D20000372104308602068820401D5A26C1AB1C6
:101D3000400415D5E06C98B90868D4E9012342EA5B
:101D40008312C0F30360237C000640EA0370024361
:101D50000A602868A26920F01F00521E1043286004
:101D6000207800060AD5D4E9010240EA8210227BDD
:101D7000237C120642EA0372104308600120CBF86C
:101D80006800FFF7EBF980460AE000BFFFF7E6F9CD
:101D9000A0EB0800022803D90320BDE8F88F02E079
:101DA00038680001F2D52088C00505D52868616B28
:101DB00020F00040084328602088800505D5286869
:101DC000A16B20F40040084328602088400505D519
:101DD0002868E16B20F00040084328602088000557
:101DE00005D52868216C20F48040084328602088AD
:101DF000C00405D53068616C20F040400843306075
:101E00000020CAE78C38024000700040400E474274
:101E10000010474294380240FFFCFF0F0000474289
:101E2000843802402DE9F0470E46050065D0DFF802
:101E30001481D8F80000F7B200F00700B04207D2D2
:101E400088F80070D8F8000000F00700B04254D1C4
:101E500028683D4C810712D5400703D5206840F41F
:101E6000E05020602878000703D5206840F46040E7
:101E700020602068A96820F0F000084320602878DE
:101E8000C0072DD0304968680839012812D00228CF
:101E900013D0032811D00968890700292DDA216899
:101EA00021F0030101432160FFF758F9814641F217
:101EB000883A0EE009688903EFE709688901ECE7D1
:101EC000FFF74CF9A0EB0901514502D90320BDE809
:101ED000F0872068696800F00C00B0EB810FEFD14B
:101EE000D8F80010404601F00701B14207D9077049
:101EF000006800F00700B04201D00120E7E7287831
:101F0000400705D52068E96820F4E05008432060C8
:101F10002878000706D52068296920F4604040EA47
:101F2000C100206000F038F82168084AC1F30311AD
:101F3000515CC8400649086006480068FFF724FC69
:101F40000020C4E7003C024008380240B05C0008B2
:101F50008C000020840000200448054900680968BE
:101F6000044AC1F38221515CC84070478C000020B4
:101F700008380240C05C0008044805490068096848
:101F8000044AC1F34231515CC84070478C000020C4
:101F900008380240C05C0008154810B5006810F011
:101FA0000C02144813D04110042A0FD0082A0ED175
:101FB0000F4C241F2268236802F03F025B0207D502
:101FC0002068C0F38810A0FB010106E0084610BDA0
:101FD0002168C1F38811A1FB00010023FEF71AF963
:101FE0002168C1F30141491C4900B0FBF1F010BD6B
:101FF000083802400024F4002DE9F84F04006ED0A8
:102000002078DFF86093C007A9F104054AD009F1F0
:1020100004000168C1F38101012908D00068C0F300
:10202000810002280AD1D9F80000400206D52868AC
:10203000800337D560680028E1D033E06068B0F5F0
:10204000803F10D0B0F5A02F286810D020F4803049
:102050002860286820F4802028606068A8B1FFF715
:102060007DF806460DE0286840F48030F4E740F43F
:1020700080202860F7E700BFFFF770F8801B642816
:1020800073D828688003F7D50CE0FFF767F8064699
:1020900005E000BFFFF762F8801B6428F0D82868CD
:1020A0008003F7D42078DFF8C08280074FF0000A61
:1020B0003ED5AC48001D016811F00C0F08D0006837
:1020C000C0F3810002280BD1D9F80000400207D4E8
:1020D0002868800716D5E068012800D112E03CE1AD
:1020E000E068B8B10120C8F80000FFF737F80646ED
:1020F00005E000BFFFF732F8801B0228C0D828682F
:102100008007F7D52868216920F0F80040EAC1006F
:1021100028600DE0C8F800A0FFF720F8064604E0AC
:10212000FFF71CF8801B02281FD828688007F7D407
:102130002078000722D58B4E8C486169703671B1CA
:1021400001210160FFF70AF8074604E0FFF706F8EF
:10215000C01B022809D830688007F7D50EE0C0F808
:1021600000A0FEF7FBFF074605E082E0FEF7F6FF62
:10217000C01B02287DD830688007F7D4207840073C
:1021800068D5DFF8E0B100270BF13C0BDBF800006D
:10219000C0000BD4DBF8001041F08051CBF80010E8
:1021A000DBF80000012700F080500090704E30688E
:1021B000C00510D4306840F480703060FEF7CEFF68
:1021C000009005E0FEF7CAFF0099401A022850D897
:1021D0003068C005F6D5634EA0686C3601280FD074
:1021E0000528306810D020F001003060306820F001
:1021F00004003060A068B8B1FEF7B0FF00900FE0B7
:10220000306840F00100F4E740F004003060F7E788
:10221000FEF7A4FF0099411A41F28830814268D844
:1022200030688007F4D50EE0FEF798FF009007E0D5
:10223000FEF794FF0099411A41F28830814258D844
:1022400030688007F4D42FB1DBF8001021F0805102
:10225000CBF80010A069D8B34249091D0968C1F341
:10226000810102294CD00228504607D0C8F86000EE
:1022700000E03EE0FEF772FF04463DE04746C8F846
:102280006000FEF76BFF064605E000BFFEF766FF45
:10229000801B02282DD828688001F7D4F4E90701B3
:1022A0000843E168334A490802EB0141A26841EA68
:1022B00082110843217C40EA0160217D40EA0171DE
:1022C000C9F8001001203866FEF748FF044606E012
:1022D00045E000BFFEF742FF001B022809D828682E
:1022E0008001F7D53BE000BFFEF738FF001B022856
:1022F00002D90320BDE8F88F28688001F4D42EE0CD
:102300000128F7D0D9F80000E26900F48001914279
:1023100023D1226A00F03F0191421ED147F6C071DD
:10232000626A0140B1EB821F17D1A26A4FF0FF33FE
:1023300000F4403103EB5202B1EB024F0DD194F89F
:102340002C2000F07061B1EB026F06D194F83010D0
:1023500000F0E040B0EB017F01D00120CAE700208F
:10236000C8E700000438024000004742800E4742A0
:10237000007000400000FFFF10B5401EB0F1807FEC
:1023800001D3012010BD4FF0E02460610F216017E0
:1023900001F02EFC0020A06107202061002010BD6C
:1023A0007047704770B590F83C20012A32D0012464
:1023B00080F83C40022280F83D2003685A689D68FE
:1023C00022F070060A6832435A60134B02689A4240
:1023D00014D0B2F1804F11D0104B9A420ED0104B56
:1023E0009A420BD00F4B9A4208D00F4B9A4205D01D
:1023F0000E4B9A4202D00E4B9A4204D1496825F006
:1024000080031943916080F83D40002180F83C1022
:10241000084670BD022070BD00000140000400406D
:1024200000080040000C0040000401400040014052
:102430000018004010B5040003D094F83D0010B11E
:1024400007E0012010BD002084F83C00204600F089
:102450001FF8022084F83D00211D206801F01CF8BF
:10246000012084F8460084F83E0084F83F0084F898
:10247000400084F8410084F8420084F8430084F866
:10248000440084F8450084F83D00002010BD0000A1
:1024900008B501681448B1F1804F14D0134A914235
:1024A00020D1016841F0020101600068002200F0C3
:1024B0000200009011461D20FFF7ACF91D20BDE879
:1024C0000840FFF799B9016841F001010160006817
:1024D000002200F00100009011461C20FFF79AF93D
:1024E0001C20ECE708BD000040380240000400401A
:1024F00090F83D10012901D001207047022180F899
:102500003D100168CA6842F00102CA6000681149C2
:10251000884214D0B0F1804F11D00F4988420ED0BC
:102520000E4988420BD00E49884208D00D49884296
:1025300005D00D49884202D00C49884204D18168F7
:1025400001F00701062903D0016841F00101016093
:1025500000207047000001400004004000080040D7
:10256000000C004000040140004001400018004001
:1025700070B5044690F83C000025012817D00126CC
:1025800084F83C60022084F83D002068826822F0D4
:10259000770222F47F4282600868502838D00DDC30
:1025A00020284FD005DC90B3102811D14AE002203A
:1025B00070BD302846D040280AD13BE060282FD09B
:1025C00070280DD0B0F5805F03D0B0F5005F12D059
:1025D000012584F83D60002084F83C00284670BD49
:1025E000CB68D1E90121206800F0BAFF206881683A
:1025F00041F0770109E0CB68D1E90121206800F0C2
:10260000AFFF2068816841F480418160E1E719E013
:10261000CA684968206800F0B5FF5021206806E0CC
:10262000CA684968206800F0BEFF6021206800F099
:10263000A1FFCEE7CA684968206800F0A3FF4021E7
:102640002068F4E7226801461046F0E7704770B54D
:102650000446006801694FF00005C943890715D495
:10266000C168C943890711D4E91E0161012020779F
:10267000206880698007204602D0FFF7E7FF04E06A
:1026800000F098F8204600F096F825772068016958
:10269000C943490717D4C168C943490713D46FF028
:1026A00004010161022020772068806910F4407FD6
:1026B000204602D0FFF7CAFF04E000F07BF8204676
:1026C00000F079F8257720680169C943090716D415
:1026D000C168C943090712D46FF0080101610420E1
:1026E00020772068C0698007204602D0FFF7AEFF40
:1026F00004E000F05FF8204600F05DF825772068E0
:102700000169C943C90617D4C168C943C90613D4AE
:102710006FF010010161082020772068C06910F473
:10272000407F204602D0FFF791FF04E000F042F81E
:10273000204600F040F8257720680169C943C907A1
:1027400008D1C168C943C90704D1891E0161204667
:1027500000F032F820680169C943090609D4C1684C
:10276000C943090605D46FF0800101612046FFF7D7
:1027700017FE20680169C943490609D4C168C943E5
:10278000490605D46FF040010161204600F020F8B1
:1027900020680169C94389060BD4C168C943890609
:1027A00007D46FF0200101612046BDE87040FFF7BB
:1027B000F8BD70BD7047704700680349884202D178
:1027C00002490120C8607047000400406C000020EE
:1027D000704770B5040004D094F83D00002510B196
:1027E00006E0012070BD84F83C50204600F022F83D
:1027F000242084F83D002068C16821F40051C160A4
:10280000204600F001FF2068016921F49041016138
:102810002068416921F02A0141612068C16841F4C2
:102820000051C1602564202084F83D0084F83E00FA
:10283000002070BD10B586B0044614216846FDF72F
:1028400033FD14492068884221D1134800210268D1
:1028500042F480220260006800F4802005900E4857
:102860001038026842F008020260006800F00800B8
:1028700005904FF4407000900220CDE90101032043
:1028800003900720049069460448FEF76FFB06B0EA
:1028900010BD00000048004040380240000C0240DB
:1028A0002DE9F843044690F83D001F4616460D46B4
:1028B00020284CD1C5B1BEB194F83C00012846D0C7
:1028C000012084F83C004FF00008C4F8408021202B
:1028D00084F83D00FEF742FCA6848146E684A068A9
:1028E000B0F5805F03D004E00120BDE8F8832069E3
:1028F00028B12E465FF0000584F83C800EE00026EB
:10290000FAE78021204600F00FFFA0B9AEB116F81B
:10291000010B21684860E08C401EE084E08C4B464F
:102920004FF0000200970028EBD14FF04001204605
:1029300000F0FAFE30B10320D7E735F8020BC0F300
:102940000800E6E7202084F83D000020CDE70220C3
:10295000CBE7FEE770B515490268154B4FF04024F0
:102960008A4201D11A4600E02246D568C26A961C06
:10297000C6621580428E521E4286428E002A14D1B3
:1029800002688A4201D1194600E02146496821F0D7
:10299000600100D023465960418D002905D14FF0D8
:1029A000010180F84110FEF7D9FC70BD00380040ED
:1029B0000034004070B5416A144B8A1C42620568BD
:1029C0000988134A4FF040249D4201D1154600E08A
:1029D0002546E960418D491E4185418D002914D16C
:1029E0000168994201D1114600E02146496821F071
:1029F000A00100D022465160418E002905D14FF040
:102A0000010180F84110FEF7A9FC70BD00380040BC
:102A10000034004010B5806B01684A6822F0030260
:102A20004A60002141854186012180F84110416CB6
:102A300041F008014164FEF792FC10BD10B501465B
:102A4000806BC96949B901684A6822F002024A608C
:102A500000214185012180F84110FEF725FE10BDBF
:102A600010B5806BFEF746FE10BD7CB501680446CC
:102A70008868009094F841000125042834D100981A
:102A8000C00718D04868C043400614D4C96820461F
:102A9000E26A1180E16A891CE162618E491E6186E9
:102AA000618E41B901684A6822F060024A6080F88C
:102AB0004150FEF797FD0098400615D52068416803
:102AC000C943890610D4416821F060014160206843
:102AD000C1688068019084F84150606C40F0020049
:102AE00060642046FEF73BFC94F84100032834D193
:102AF0000098800719D521684868C043000614D49F
:102B0000626A20461288CA60616A891C6162618DAE
:102B1000491E6185618D41B901684A6822F0A002B1
:102B20004A6080F84150FEF7BFFD0098000714D5B9
:102B300020684168C94389060FD4416821F0A0018B
:102B4000416020688068009084F84150606C40F0DB
:102B5000040060642046FEF702FC7CBD094808B50D
:102B6000016841F4001101600068002200F40010C7
:102B7000009011460F20FEF74DFEBDE808400F20E3
:102B8000FEF73ABE303802402DE9F04387B01421F9
:102B90006846FDF789FB64480024016841F00401A0
:102BA0000160016801F004010591016841F08001B4
:102BB0000160016801F080010591016841F00101A7
:102BC0000160016801F001010591016841F0020115
:102BD0000160016801F002010591016841F00801FE
:102BE0000160016801F008010591016841F04001B0
:102BF00001600068DFF8348100F0400044F2810693
:102C00000590002231464046FEF7A3FADFF82091F6
:102C1000002240214846FEF79CFA4FF400504FF442
:102C20008815CDE90005694602944248FEF79EF9F1
:102C30000F20CDE90004404F694638460294FEF764
:102C400095F9102000900320CDE90104694638462B
:102C5000FEF78CF900960126CDE9016469464046ED
:102C60000394FEF783F941F22A40CDE90005334F82
:102C7000694602943846FEF779F940F6D500CDE969
:102C800000050220029069463846FEF76FF94020A1
:102C90000090CDE90164694648460394FEF766F961
:102CA0008020CDE90004694648460294FEF75EF9AB
:102CB000002211460620FEF7ADFD0620FEF79CFD22
:102CC000002211460720FEF7A5FD0720FEF794FD20
:102CD000002211460820FEF79DFD0820FEF78CFD1E
:102CE000002211460920FEF795FD0920FEF784FD1C
:102CF000002211460A20FEF78DFD0A20FEF77CFD1A
:102D0000002211461720FEF785FD1720FEF774FDFF
:102D1000002211462820FEF77DFD2820FEF76CFDDD
:102D200007B0BDE8F08300003038024000040240E4
:102D3000001802400008024000000240000C02405F
:102D40000D4810B50B4901604915416000218160B3
:102D500045F22262C160C0E904128161C161016271
:102D6000FEF700FB002803D0BDE81040FDF729BFA7
:102D700010BD000000380040441A002010B586B095
:102D800000241648009401940294039404944FF094
:102D900080410594C0E900144FF40861C0E9024184
:102DA000802104618161FFF745FB08B1FDF709FF50
:102DB0004FF48050009069460848FFF7D9FB08B1EE
:102DC000FDF7FFFE049404A904480594FFF7EAFA0E
:102DD000002801D0FDF7F5FE06B010BDEC1A00206A
:102DE00010B586B00024174800940194029403940F
:102DF00004941349059401605F21C0E9011440F275
:102E0000E731C0E9031480218161FFF713FB08B1AA
:102E1000FDF7D7FE4FF48050009069460948FFF750
:102E2000A7FB08B1FDF7CDFE049404A9054805945D
:102E3000FFF7B8FA002801D0FDF7C3FE06B010BDB9
:102E400000040040341B00200C4810B50A49016002
:102E50004FF4E1314160002181600C22C160C0E982
:102E600004128161C161FFF7B4FC002803D0BDE802
:102E70001040FDF7A6BE10BD004800407C1B00209E
:102E80000D4810B54FF0A0410160062141600222BB
:102E90000021C0E9032182610122C0E90721C0E9C4
:102EA0000912C0E90B21FEF7FBFC002803D0BDE8A6
:102EB0001040FDF786BE10BDC01B0020FEE7FEE7F8
:102EC000F0B595B00646034630A2402104A800F0B4
:102ED0005DFE04A8FDF7F3F982B2642304A9324829
:102EE000FFF7DEFCFDF770FE054603462FA24021EA
:102EF00004A800F04BFE04A8FDF7E1F982B26423B8
:102F000004A92948FFF7CCFC681C3DD02D4905EBEE
:102F1000C50001EB80043046FDF768FE9FED2A0BEB
:102F20002B4F53EC102B97ED020B51EC100BFDF7D0
:102F3000CDF99FED281B53EC112BFDF739FAFDF766
:102F4000D6FA606000200121206021739FED230AE2
:102F5000606184ED070A84ED080AA66184ED040A25
:102F600097ED020B2B468DED020B1DA2402104A80C
:102F7000009600F00BFE04A8FDF7A1F982B26423CD
:102F800004A90948FFF78CFC15B0F0BD4E6F7465BD
:102F90004F6E2063616C6C65643A206E6F74653DA2
:102FA00025640D0A000000007C1B00204672656548
:102FB00020766F69636520696E6465783A202564C0
:102FC0000D0A000094180020000000000000F041ED
:102FD00000000020000000008088E54000000000A4
:102FE000566F696365202564206163746976617436
:102FF000656420666F72206E6F74652025642C20D6
:10300000667265713D252E32660D0A00704700001C
:103010000148FEF7A5B90000441A002070470000DF
:103020002DE9F047384CE06800286AD00025E560BB
:10303000364E01213046FEF787F8804602213046A1
:10304000FEF782F8814604213046FEF77DF80746F8
:1030500001262078B8F1010F08D098B1401E2070E9
:10306000C0B203280DD3E07820B10FE00528F7D2D5
:10307000401CF4E72449E67008310120FDF7E4FC28
:1030800004E018B9E078012800D1E5706078B9F162
:10309000010F08D098B1401E6070C0B203280DD354
:1030A000207920B10FE00528F7D2401CF4E716493B
:1030B000267108310220FDF7C7FC04E018B9207919
:1030C000012800D12571A078012F10D0A8B1401E91
:1030D000A070C0B203280ED36079002811D16671A8
:1030E000BDE8F047084908310420FDF7ADBC0528CC
:1030F000EFD2401CECE7002803D16079012800D111
:103100006571BDE8F08700006C00002000000240FF
:1031100010B50F4B0022845C00EE104A03EB8204D2
:10312000521CB8EE400A092A84ED000AF3DB084A73
:10313000002024320B5C00EE103A02EB8003401CAE
:10314000B8EE400A092883ED000AF3DB10BD000049
:10315000200000202DE9F04F00F0A0FC5B4F002480
:10316000DFF86C913D68264606EBC60109EB81024B
:10317000107B00287ED05749106988427ADD9FED88
:10318000560AD2ED000AF8EE600A60EE802A9FED42
:10319000532ADFF838A1DFF848B100230AF1200AEA
:1031A00092ED080A1846FDF737FC0AEB8300D0EDD4
:1031B000000A20EE800A10EE100A584534DD581C33
:1031C00000EE900AF8EEE00A62EEA00A9FED451AC2
:1031D000DFF814C160EE810AFCEEE00A10EE900AFE
:1031E000810DC0F38B203CF91180491CC1F309010A
:1031F00000EE908A3CF9111001EE101AF8EEE00A88
:10320000F8EEC11A01EE100AB8EE411A9FED373AF6
:1032100071EEE01A21EE031A41EE210A9FED341AF5
:1032200060EE810A00EE802A5B1C092BB8DB92ED70
:10323000070A304910EE100A884222DA2E48DFEDE4
:103240002F1A454343F239000544C5F30E0000EE42
:10325000900AB8EE601AC1EE210AB6EE001ADFED50
:10326000291A70EEC10A9FED261A60EE810A80EEDF
:10327000211A00E017E0B7EE000A30EE410A00EE36
:10328000802A92ED040AF1EE040A20EE020A20EEF2
:10329000200ABDEEC00A10EE100A00B20444D2E9C2
:1032A000000108441060761C0C2EFFF65DAF3D60F7
:1032B000B4F5004F02DB47F6FF7403E014F5004F4E
:1032C00000DC114C20B2BDE8F08F000000000020AF
:1032D000941800206F12833A0000802F0000000035
:1032E0000AD7233C0000804F941000200000803952
:1032F000000100380AD7A33C6D4EC64100FEFF46D0
:103300009A99193E0AD7A33C0180FFFF70B5244D5E
:1033100000242DED048B4FF480669FED1D9ADFEDA8
:103320001D9A9FED1D8B00BF00EE104AB8EEC00A3B
:1033300020EE090A20EE290A10EE100AFDF7F0F837
:1033400041EC100B01F08CFA53EC182B51EC100BE4
:10335000FCF7BCFFFDF7ACF825F81400641CB44280
:10336000E2D300200F4B9FED100A024600EBC00194
:1033700003EB8101401C0A7381ED040A4A6181ED6F
:10338000070A81ED080A0C28F0DBBDEC048B70BD48
:10339000DB0FC9400000803A00000000C0FFDF40A2
:1033A000941000209418002000000000FEF7CAB915
:1033B00070B5AAB0342116A8FCF776FF142123A813
:1033C000FCF772FF58216846FCF76EFF2648002480
:1033D000016841F080510160006800F08050289041
:1033E0002248016841F4404101600068022500F470
:1033F00040402890012016904FF4A02017906805B7
:10340000CDE91C501EAA08204FF4C071042682E8A2
:103410004300CDE9210516A8FEF7EEFD08B172B60E
:10342000FEE70F20CDE923054FF48050CDE925407C
:10343000032123A82794FEF7F5FC08B172B6FEE736
:10344000212000900C94C0200794CDE9020514942B
:10345000019604956846FEF749FB002801D072B634
:10346000FEE72AB070BD0000403802400070004006
:103470000248016841F470010160704788ED00E086
:103480000148FFF7E4B80000EC1A00200148FFF7FC
:10349000DEB80000341B0020F0B50268254C264D34
:1034A000264E274F274B4FF0804CA04209D0604555
:1034B00007D0A84205D0B04203D0B84201D098420C
:1034C00004D122F0700E4A6842EA0E02A0421BD0DC
:1034D000604519D0A84217D0B04215D0B84213D0D9
:1034E000984211D0184DA8420ED0184DA8420BD0CA
:1034F000174DA84208D0174DA84205D0164DA84236
:1035000002D0164DA84203D122F44075CA682A435E
:103510004D6922F080022A4302608A68C2620A680A
:103520008262A04201D0984201D109690163012160
:103530004161F0BD0000014000040040000800406F
:10354000000C0040000401400040014000440140E4
:103550000048014000180040001C004000200040CE
:1035600010B5846842EA032224F47F440A432243CC
:10357000826010BD826822F070020A4342F00701A7
:103580008160704710B5036A046A24F00104046284
:10359000846924F0F00444EA021423F00A020A4386
:1035A0008461026210BD10B5036A23F01003036248
:1035B0008369046A23F4704343EA023224F0A003CF
:1035C00043EA01118261016210BD000018B10128B7
:1035D00005D0022808D00749A1F1090008E00549F3
:1035E0001231A1F1090003E002492431A1F10900DF
:1035F000FFF78EBD7B5C0008024800210170007857
:10360000FFF7E4BF7C00002070B504460068016944
:10361000E26821F44051114301612169A068E26927
:1036200008436169114308432168CA6849F20C6381
:103630009A430243CA6020684169A26921F440713B
:103640001143416134492068884208D03349884297
:1036500005D03349884202D03249884202D1FEF770
:103660008BFC01E0FEF778FCE26900231921642558
:103670003226B2F5004F626828D0A0FB0101930FFB
:103680009200FCF7C7FD0146B0FBF5F06FF01802A1
:10369000504301EB800006EB0010B0FBF5F000F0AA
:1036A000F002B1FBF5F002EB0012B1FBF5F06FF0A8
:1036B0001803584301EB800006EB0010B0FBF5F057
:1036C00000F00F0021681044886070BDA0FB01016C
:1036D00092185B41FCF79EFD0146B0FBF5F002013C
:1036E000B1FBF5F06FF01803584301EB800006EBD7
:1036F000C000B0FBF5F000F0F80002EB4002B1FBB7
:10370000F5F0584301EB800006EBC000B0FBF5F08C
:1037100000F00700D6E7000000100140001401404F
:1037200000180140001C01402DE9F0419846174661
:103730000E460446069D27E0681C25D02DB1FDF7F6
:103740000DFDA0EB0800A8421ED920680C3050E8FF
:10375000001F21F4D07140E80012002AF5D1206842
:10376000143050E8001F21F0010140E80012002A47
:10377000F5D1202084F83D0084F83E00002084F834
:103780003C000320BDE8F0812068006836EA0000B4
:1037900004D00020B842CFD00020F3E70120F9E7A1
:1037A00070B5044606990A9E049D0D98012916D00D
:1037B000E06840F04000E060204600F02BF8A16B8C
:1037C0001EB321F48031A163012D07D1A16841F01E
:1037D0000601A160A16841F02001A16070BDA16B4C
:1037E00021F48031A163E168094A1140E160E16898
:1037F00021F44011E160012803D1E06840F4801019
:10380000E060204600F006F8DEE741F48031DAE7B8
:10381000BFFFBDFF08B500220D490092009B5B1C55
:1038200000938B420CD80369002BF7DA00920269EF
:1038300042F001020261009A521C00928A4201D9B0
:10384000032008BD0269D207F5D1002008BD0000A1
:10385000400D0300D0F8001E21F00301C0F8001E47
:10386000D0F8041841F00201C0F804180020704795
:103870002DE9F04F00250E460446DDF82CC0DDF89A
:1038800024B0109F2846294604EB8002C2F8041198
:10389000401C0F28F8D32046A7B1806B40F40012DB
:1038A000A26308468846C4F8000ED4F800182046E3
:1038B000C4F80018BCF1010F17D0D0F8001841F07F
:1038C000030117E0D0F8040840F00202C4F804280D
:1038D000A06B20F40012A263206840F04002226036
:1038E000206840F080022260DBE7D0F800180BB1BE
:1038F00041F00101C0F80018102100F08BF800B170
:103900000125204600F072F800B101254046C4F8B8
:103910001088C4F81488C4F81C8800214FF000698E
:103920004FF0904A4FF67F3315E000BF04EB411291
:10393000D2F800C9BCF1000F06DA11B1C2F800A933
:1039400004E0C4F8009901E0C2F80009C2F81009C7
:10395000C2F80839491C8E42E8D8002115E000BFA2
:1039600004EB4112D2F800CBBCF1000F06DA11B122
:10397000C2F800AB04E0C4F8009B01E0C2F8000B01
:10398000C2F8100BC2F8083B491C8E42E8D8D4F8A4
:10399000101821F48072C4F81028A0616FF08040E4
:1039A0006061BBF1000F03D1A06940F01000A0617D
:1039B000A06909490843A0610C9818B1A06940F0BA
:1039C0000800A061012F03D1A06904490843A06148
:1039D0002846BDE8F08F000000383C80040000401D
:1039E000816821F0010181600020704708B5002145
:1039F0000091102101610649009A521C00928A42EE
:103A000001D9032008BD0269D206F5D4002008BD03
:103A1000400D030008B500220092202242EA8111E5
:103A200001610649009A521C00928A4201D9032082
:103A300008BD02699206F5D4002008BD400D0300C0
:103A400070B50446C068002520F0C040E060012940
:103A500001D079B120E0E06840F00050E060012042
:103A6000FDF760FA60696D1C10F0010F10D1322D66
:103A7000F5D30DE0E06840F08040E0600120FDF704
:103A800051FA60696D1C10F0010F01D0322DF5D391
:103A9000322D01D0002070BD012070BD10B59FED0A
:103AA000361A364B3649DFED371A0022B7EE000AD8
:103AB00002EBC20003EB8000047B3CB3D0ED070AAD
:103AC00070EE810AC0ED070AD0ED080A70EE810A97
:103AD000C0ED080A446934B1012C18D0022C47D03B
:103AE000032C45D12DE090ED072AD1ED002AC2EE3E
:103AF000220A10EE904AC0ED040AB4F17E5F37DB73
:103B000080ED040A01244461C0ED071A30E0D0EDD5
:103B1000070A91ED012AC0EE822AD1ED020AB0EE29
:103B2000402A30EE603A03EE622A80ED042AB4EEB9
:103B3000E02AF1EE10FA1BD8C0ED040A0324446118
:103B400016E090ED072AD1ED032AC2EE220A91ED8C
:103B5000022A70EE600A60EE820AC0ED040AF5EEF9
:103B6000C00AF1EE10FA03D8C0ED041A0024047361
:103B7000521C0C2A9CDB10BDC637BE37941800209F
:103B80001000002000000000FEE700000FB47CB52C
:103B90000C0009AD01D0611E00E00021CDE900015B
:103BA000064B6A462946089801F0DAFB002C02D041
:103BB000009A002111707CBC5DF814FB675A000864
:103BC00003B401984100009850EAC12018BF0420B6
:103BD0004A0D18BF40F0010040F2FF72B2EB515F96
:103BE00008BF40F00200012808BF052002B070475E
:103BF0000907090E002804DB00F1E02080F800141A
:103C0000704700F00F0000F1E02080F8141D7047AD
:103C10002DE9F04D2DED040B2DED0E8B96B0DDE969
:103C20002550279CDDF890A025F0004624F00048A0
:103C3000BAF1000F14BF0121002101EB4502FC493C
:103C400053184A1093422AD3002814BF012300239B
:103C500003EB44030B44F7498B4220D358EA00019D
:103C60009FEDF59B76D0DFF8D8B35D4503D1BAF16F
:103C7000000F05D188E0BAF1000F08BF002100D085
:103C8000012101EB450111F5001F08D8002814BFE0
:103C90000121002101EB440111F5001F0BD99DED1D
:103CA000261B9DED240B16B0BDEC0E8B04B0BDE8B9
:103CB000F04D01F043BA0027002DBCBFE149884513
:103CC00021DAE1498845A8BF02271CDAC3451ADC7E
:103CD000DE4901EB2851142908DDC1F1340220FA34
:103CE00002F101FA02F282420DD108E058B9C1F1A5
:103CF000140228FA02F101FA02F2424503D101F05E
:103D00000101C1F1020756EA0A0124D1002C22DA8E
:103D1000002D18BF022F01D0012F0AD0022001F080
:103D200057FA16B0BDEC0E8B04B0BDE8F04D01F0B3
:103D3000E3B9022001F04CFA01F0DEF951EC100B6E
:103D400081F0004141EC100B16B0BDEC0E8B04B0BD
:103D5000BDE8F08D18E09FEDBEAB9FEDBF8B002856
:103D600071D1B848804522D105F1804010F580100E
:103D700008BFBAF1000F07D0B3450ADC002CA8BF7A
:103D80009DED260BE0DA0DE0B0EE490AF0EE690A8F
:103D9000DAE7002C06DA9DED260B51EC100B81F0D2
:103DA00000416FE0AE48784490ED000BCCE7D84579
:103DB0004DD1002C48DA2EB186423AD1BAF1000F2B
:103DC00042D126E0BAF1000F13D0022001F000FA30
:103DD00001F0CEF98DED020B9DED240B8DED000B66
:103DE00010EE900A039961F31E0003909DED020B03
:103DF000AAE78DED02AB9DED240B1AEE901A10EEA2
:103E0000900A8DED000B61F31E0003909DED020BF7
:103E10009AE78DED028B9DED240B18EE901A10EEB3
:103E2000900A8DED000B61F31E0003909DED020BD7
:103E30008AE709DA9DED240B51EC190B53EC102B9A
:103E4000FCF7B6FA1EE020E09DED240B7CE78642ED
:103E50001BDAB4F1804F0DD0A4F10050B0F1FF5047
:103E600013D1002D11DB9DED240B51EC100B01F053
:103E7000C9FE07E09DED240B53EC102B51EC100B09
:103E800000F0C2BC41EC100B5EE79DED240B51EC41
:103E9000100B01F071FEBAF1000FCDE90E0142D115
:103EA0009FED710B46B3A6F1E040B0F17F600CD0FE
:103EB0005E4538D1002D00DAA7B3022F0CBF0120D8
:103EC0004FF0FF30FCF7E3FADCE7002D01DD002CBA
:103ED0000DDA002D01DD002C1FDB002D16DA002C81
:103EE00014DB012F08BF9FED620B3FF42DAFB0EE46
:103EF0004A0AF0EE6A0A27E7022F18BF002D0CD0FD
:103F0000012F0AD1002DFFF61FAF06E0002DB8BF2C
:103F1000002C08DA012F3FF417AFB0EE480AF0EE9C
:103F2000680A11E71BE0012000EBE57050EA070189
:103F300015D0791EB0EE498AF0EE698A084308BFB1
:103F40009FED4D8B4E480025804570DD4D494E4814
:103F5000884514DDB0420DDB002C19DB2FE0012079
:103F600001F036F916B0BDEC0E8B04B0BDE8F04D93
:103F700001F0EEB8B34502DC002C09DC1FE08642FC
:103F800002DA002C1BDA03E05E452BDD002C16DD87
:103F9000022001F01DF901F0EBF88DED020B53EC5E
:103FA0001A2B51EC180BFCF791F9CDE9000103999C
:103FB000019861F31E0003909DED020BC4E6022000
:103FC00001F006F901F0E4F810EE901A18EE900AEC
:103FD0008DED020B8DED008B61F31E0003909DEDC6
:103FE000020BB1E69DED0E0B53EC192B51EC100BAF
:103FF000FCF7DCFB9FED260BCDE9080153EC102B01
:104000009DED080B51EC100BFCF760F99FED221BA6
:1040100053EC112BFCF7CDFB9DED081B53EC112B42
:10402000FCF754F99FED1E1B53EC112B3CE08CE088
:10403000FFFF1F00FFFF0F00000000000000F03F27
:104040000000F03F0000F07F0000404301FCFFFF54
:10405000000000000000F07F0000000000000000F1
:10406000D61F0000000000000000000000000080DB
:10407000000000000000F0FF000000000000F0BFA2
:104080000000E0410000F043FFFFEF3F00000000B0
:10409000000000000000D03F555555555555D53FFF
:1040A000000000000000E03FFCF783FB9DED080BE3
:1040B00041EC1A0B53EC102B51EC100BFCF706F9EA
:1040C00053EC1A2BFCF702F941EC1A0B9FEDFE0B97
:1040D00053EC102B9DED080B51EC100BFCF7F6F890
:1040E00041EC1B0B9FEDFA0B51EC1A0B53EC102B10
:1040F000FCF7ECF841EC1A0B9FEDF70B53EC102B8F
:104100009DED080B51EC100BFCF7E0F853EC1A2B6B
:10411000FCF74CFB41EC1A0B51EC1B0B53EC1A2B2C
:10412000FCF7A3FA0690CDE906519DED060B53EC82
:104130001B2B51EC100BFCF739FB53EC1A2BFCF743
:1041400038FB41EC100B00F0A1B90020B6F5801F40
:104150000EDA9FEDE30B53EC102B9DED0E0B51ECA3
:10416000100BFCF7B3F8CDE90E016FF034000E46EA
:1041700000EB2650A0F2FF37C6F31300DA4940F0F7
:104180007F6646F040568842D8BF002408DDD749F4
:104190008142C8BF012403DC0024A6F580167F1CE1
:1041A000D348784400EBC4000F9690ED00CB9DED12
:1041B0000E0B53EC1C2B51EC100BFCF7F7FA9DED9A
:1041C0000E0B41EC1B0B53EC1C2B51EC100BFCF7B2
:1041D0004CFA41EC100B51EC190B53EC102BFCF783
:1041E000E7F841EC1D0B51EC1B0B53EC1D2BFCF7BE
:1041F0006DF841EC1A0BBF488DED10AB784410956B
:1042000090ED000B4FF0005040EA660000EB844058
:104210008DED080B00F5002009909DED080B53EC87
:104220001C2B51EC100BFCF7C1FA9DED0E1B53EC4F
:10423000112BFCF7BEFA41EC100B53EC102B9DED4B
:10424000100B51EC100BFCF741F89DED080B41EC05
:104250001C0B53EC102B9DED100B51EC100BFCF7CD
:1042600035F853EC1B2BFCF7A4FA53EC1C2BFCF792
:104270009DFA53EC1D2BFCF729F841EC1C0B53EC79
:104280001A2B51EC1A0BFCF721F841EC1B0B9A4846
:104290000621B0EE4B0AF0EE6B0A784400F018FEEF
:1042A000B0EE401AF0EE601AB0EE41DAF0EE61DAEC
:1042B00053EC1B2B51EC1B0BFCF708F853EC1D2B9C
:1042C000FCF704F89DED100B41EC1B0B53EC1A2B83
:1042D00051EC100BFCF7C9F953EC1C2BFBF7F6FF64
:1042E00053EC1B2BFCF7C1F99DED100B41EC1B0BA4
:1042F00053EC102B51EC100BFBF7E8FF41EC1D0BBE
:104300009FED7FEB53EC1E2BFCF7AFF953EC1B2B0F
:10431000FCF7ABF90890CDE908519DED080B53EC83
:104320001E2B51EC100BFCF741FA53EC1D2BFCF744
:104330003DFA53EC1B2BFCF73CFA9DED080B41ECCE
:104340001D0B53EC102B9DED100B51EC100BFBF7DC
:10435000BDFF41EC1B0B53EC1A2B51EC1D0BFBF773
:10436000B5FF9DED080B41EC1A0B53EC102B51ECF3
:104370001C0BFBF7ABFF53EC1A2BFCF776F941EC67
:104380001A0B51EC1B0B53EC1A2BFCF76EF90C902B
:10439000CDE90C519DED0C0B53EC1B2B51EC100B8C
:1043A000FCF704FA53EC1A2BFCF703FA41EC1B0B55
:1043B0009FED550B53EC102B9DED0C0B51EC100B9E
:1043C000FBF784FF41EC1A0B9FED510B51EC1B0BDB
:1043D00053EC102BFBF77AFF41EC1B0B9FED4E0BC0
:1043E00053EC102B9DED0C0B51EC100BFBF76EFFFB
:1043F00053EC1B2BFCF739F941EC100B484878447F
:1044000000EBC40090ED001B51EC100B53EC112B92
:10441000FCF72BF941EC1B0B3846FCF738F8CDE9DB
:10442000080153EC1B2B51EC1A0BFCF71EF941EC65
:10443000100B3C48784400EBC40090ED00CB51ECED
:10444000100B53EC1C2BFCF710F99DED081B53ECE3
:10445000112BFCF70AF90690CDE906519DED080BEA
:1044600053EC102B9DED060B51EC100BFCF79EF955
:1044700053EC1C2BFCF79AF953EC1A2BFCF796F92A
:1044800053EC1B2BFCF795F941EC100B9DED261B13
:1044900053EC102B8DED001B00959DED260B51EC80
:1044A000100BFBF713FF9DED000B41EC1A0B53ECC7
:1044B000102B9DED260B51EC100BFCF777F99DEDC1
:1044C000061B53EC112B2FE0000000604715F73F4F
:1044D000FE822B654715F73F44DF5DF80BAE543E77
:1044E00000000000000040438E9803007AB60B00E5
:1044F000221B0000801B00005A1A00000000000070
:104500000000000000000840000000E009C7EE3F86
:10451000FD033ADC09C7EE3FF5015B14E02F3EBE18
:10452000E6180000A0180000FBF7D0FE53EC1A2B91
:10453000FCF79BF89DED060B41EC1A0B53EC102B8E
:104540009DED000B51EC100BFBF7C0FECDE90C010B
:104550009DED0C0B51EC1A0B53EC102BFCF785F86E
:10456000CDE902010C46AA498C422FDB611A0843AF
:1045700018D19DED0C0B53EC102B9DED020B51EC63
:10458000100BFCF713F941EC1B0B9FEDA30B51EC47
:104590001A0B53EC102BFCF768F853EC1B2BFCF7B1
:1045A0003BF92DD2022000F013FE00F0E1FD10EEE9
:1045B000901A18EE900A8DED020B8DED008B61F3D1
:1045C0001E0003909DED020BFFF7BEBB944A24F042
:1045D0000041914214D39349214408437FF4EFAC46
:1045E0009DED0C0B53EC102B9DED020B51EC100BC1
:1045F000FCF7DCF853EC1A2BFCF70EF97FF6DFAC76
:1046000024F000408849894A002601EB205182426B
:104610002BDA481C4FF4801121FA00F02044844A20
:10462000C0F30A517A44A1F2FF3192ED000B814AA6
:104630008DED080BCA4020EA0202C0F3130040F4DB
:104640008010C1F1140120FA01F60992002CB8BFC4
:1046500076429DED080B53EC102B9DED0C0B51ECAD
:10466000100BFCF7A3F8CDE90C019DED0C0B51EC00
:104670001A0B53EC102BFBF7F8FF9FED6F0B089014
:10468000CDE9085153EC102B9DED080B51EC100BAC
:10469000FBF71CFE41EC1B0B9FED690B53EC102B41
:1046A0009DED080B51EC100BFBF710FE9DED0C0B74
:1046B00041EC1C0B53EC102B9DED080B51EC100B37
:1046C000FCF774F853EC1A2BFCF773F89FED5E1BA4
:1046D00053EC112BFBF7FAFD53EC1C2BFBF7C5FF3A
:1046E00041EC1A0B51EC1B0B53EC1A2BFBF7BDFFE3
:1046F000CDE902019DED020B53EC1B2B51EC100B8D
:10470000FCF754F853EC1A2BFCF753F89DED020B11
:1047100041EC1A0B53EC102B51EC100BFBF7D6FDB0
:10472000CDE908014A489DED080B0521784400F0C9
:10473000CFFB9DED081B51EC100B53EC112BFBF73D
:10474000C5FD9DED021B53EC112BFCF732F8CDE9B2
:1047500006019DED020B53EC1A2B51EC100BFBF7ED
:10476000B5FD53EC1A2BFBF780FF9FED3B0B41ECA3
:104770001A0B53EC102B9DED060B51EC100BFCF7B4
:1047800015F89DED060B41EC1B0B53EC102B9DED2A
:10479000020B51EC100BFBF799FD53EC1B2BFBF7B5
:1047A00007FE53EC1A2BFCF701F89DED021B53ECAE
:1047B000112BFBF7FBFF53EC192BFBF7FAFFCDE9AD
:1047C000020101EB065001150029C8BF039015DC5A
:1047D0009DED020B324651EC100BFBF7EDFFFFF79E
:1047E000EFF9042808BF00F0D3FC32469DED020B20
:1047F00051EC100BFBF7E0FFCDE902019DED020B40
:1048000051EC180B53EC102BFBF760FDFFF73ABB94
:104810000000904000000000FE822B654715973C89
:1048200000CC904000346F3F01FCFFFF0000E03FF0
:1048300058170000FFFF0F0000000000432EE63F66
:10484000396CA80C615C20BEEF39FAFE422EE63FBF
:10485000F81500000000000000000000000000400B
:1048600010B52F499FED2C1B2DED020B84B0059840
:1048700020F000408842DCBF00209DED040B32DDBB
:104880002849884209D1049840B94FF0010000F04E
:104890009FFC00F05DFC06B010BD05DB9DED040B38
:1048A00000F042FC06B010BD68469DED040B00F020
:1048B0003BF810F0030011D0012818D09DED021B29
:1048C0009DED000B02281AD000F04AFA51EC100BB3
:1048D00081F0004106B041EC100B10BD9DED021BB4
:1048E0009DED000B012000F06FFB06B010BD9DEDAB
:1048F000021B9DED000B00F033FA06B010BD012045
:1049000000F062FB51EC100B81F0004106B041EC6D
:10491000100B10BD000000000000000000000000AF
:10492000FB21E93F0000F07F2DE9F14F04462DED1A
:10493000020B2DED088B8AB09FEDE70B80ED020B8B
:10494000139EE74826F0004585420ADC9DED120BD8
:10495000002084ED000B0AB0BDEC088B03B0BDE86D
:10496000F08FE0489FEDE0AB9FEDE1BBA84247DD53
:10497000E14F9FEDE39B9FEDE48B9DED120B53EC1C
:104980001A2B51EC100B002E1CDDFBF70FFF41EC36
:10499000100BBD4208D053EC1B2B51EC100BFBF756
:1049A00005FFC4E900010BE053EC192B51EC100B8F
:1049B000FBF7FCFE53EC182BFBF7F8FEC4E90001F3
:1049C0000120C8E7FBF751FE41EC100BBD4208D0B7
:1049D00053EC1B2B51EC100BFBF747FEC4E9000115
:1049E0000BE053EC192B51EC100BFBF73EFE53EC94
:1049F000182BFBF73AFEC4E900014FF0FF30AAE79D
:104A0000C348A84279DB9DED120B51EC100B01F06D
:104A1000B3F841EC180B9FEDC00B53EC102BFBF7D8
:104A200055FC9FEDBF1B53EC112BFBF71EFEFBF754
:104A30003FFD0746FBF72BFD41EC190B53EC1A2BFE
:104A4000FBF744FC53EC182BFBF7B3FE41EC180BBF
:104A500053EC1B2B51EC190BFBF738FCDFF8C8A209
:104A600041EC100B4FEA15580125FA4453EC102B7A
:104A700051EC180BFBF79AFE032DC4E900013DD061
:104A8000C1F30A5005EB4511A8EB00001139814232
:104A900034DA0AEB051BB0EE48AA9BED000BF0EEF2
:104AA00068AA53EC102B51EC190BFBF70FFC41ECEF
:104AB0001B0B51EC1A0B53EC1B2BFBF777FE41EC55
:104AC000180B51EC1A0B53EC182BFBF76FFE53EC41
:104AD0001B2BFBF76BFE9BED020B41EC1A0B53EC0F
:104AE000102B51EC190BFBF7F1FB53EC1A2BFBF7D6
:104AF0005DFE41EC100B6D1CB8E70EE0002EA8BF68
:104B00003846BFF628AF94ED000B51EC100B81F046
:104B10000041C4E9000178421DE7C6F3130040F4E8
:104B2000801EC6F30A50A0F2F530471100F01F05B1
:104B3000C5F12000DDF848B00890002006900790ED
:104B40000520EC467949002D07EB0002794408BFA7
:104B500051F8221009D051F8223001EB8201AB400C
:104B60004A68089922FA01F11943A1FB0E26A1FB1C
:104B70000B131A449A4234BF0123002303EB0608A7
:104B80000CEB8003D3E901A60E448E4234BF012111
:104B9000002192448A4411B1924502D903E0924522
:104BA00001D2012100E00021C3E901A641444CF8F3
:104BB0002010011EA0F10100C4DC029800F1005099
:104BC000850F0298DDE903678000DDF81480FBF7AC
:104BD0005EFC41EC1A0B3046FBF7ABFE9FED541B1D
:104BE00053EC112BFBF772FB41EC1B0B3846FBF728
:104BF000A0FE9FED511B53EC112BFBF767FB41EC23
:104C0000180B4046FBF795FE9FED4D1B53EC112B07
:104C1000FBF75CFB41EC190B51EC180B53EC192B17
:104C2000FBF723FD53EC1B2BFBF71FFD53EC1A2B5B
:104C3000FBF71BFDCDE90801002008909DED080B56
:104C400053EC1A2B51EC100BFBF7B0FD53EC1B2B64
:104C5000FBF7ACFD53EC182BFBF7A8FD53EC192B1D
:104C6000FBF7A7FD9FED381B53EC112BFBF72EFB39
:104C70009FED370B41EC180B53EC102B9DED080BFF
:104C800051EC100BFBF722FB53EC182BFBF7EDFC60
:104C90009FED310B41EC180B53EC102B9DED080BE5
:104CA00051EC100BFBF712FB53EC182BFBF7DDFC60
:104CB00041EC100B139810F0004F06D06D4251ECF0
:104CC000100B81F0004141EC100B284684ED000BE5
:104CD00041E60000000000000000000000000000AD
:104CE000FB21E93F7CD9024000004054FB21F93F01
:104CF0003163621A61B4D03DFB21F93F000000002E
:104D00000000601A61B4D03D7370032E8A19A33B72
:104D1000FB2139410000000083C8C96D305FE43FCA
:104D2000000000000000E03F1A13000068120000BD
:104D3000000000000000103E000000000000103CD9
:104D4000000000000000103A182D4454FB21F93DEA
:104D50003326A611460B113C00000054FB21F93DFF
:104D600010B52DED040B2DED088B82B0B0EE419AFD
:104D7000F0EE619A0B9820F000449FED4BABB4F13C
:104D8000795F11DA9DED0A0B51EC100BFBF790FBEC
:104D9000002801BFB0EE4A0AF0EE6A0A02B0BDEC8C
:104DA000088B04BF04B010BD9DED0A0B53EC102B13
:104DB00051EC100BFBF78AFA41EC180B3C4806212A
:104DC000B0EE480AF0EE680A784400F081F853EC3F
:104DD000182B51EC100BFBF779FA9DED0A0B41EC07
:104DE0001B0B53EC192B51EC100BFBF76FFA41EC3A
:104DF000190B53EC1B2B51EC180BFBF767FA53EC18
:104E0000192BFBF7D3FC9FED2C0B41EC190B53EC4A
:104E1000102B51EC180BFBF759FA41EC100B2848FA
:104E2000844210DA53EC192B51EC100BFBF7BEFC4B
:104E300053EC1A2BFBF7BDFC41EC100B02B0BDECA0
:104E4000088B04B010BD1F48A042BCBF9FED1E1BC5
:104E50008DED001B06DBA4F50010019000200090F2
:104E60009DED001B51EC100B53EC112BFBF79EFC3E
:104E70009DED000B41EC180B53EC102B51EC1A0B71
:104E8000FBF794FC41EC1A0B53EC192B51EC180B6B
:104E9000FBF78CFC53EC1A2BFBF78BFC41EC100B53
:104EA000CCE7000000000000000000000000F03F20
:104EB000840F000000000000000000000000E03F40
:104EC0003333D33F0000E93F000000000000D23F31
:104ED00070B504462DED028B4D1E00EBC500B0EE03
:104EE000408AF0EE608A90ED000B35F0060017D096
:104EF00053EC182B51EC100BFBF7E8F941EC100BBD
:104F00006D1E04EBC50090ED001B51EC100B53EC33
:104F1000112BFBF7AAFB41EC100B35F00600E7D193
:104F2000022D36D0042D1CD0062D1CBFBDEC028BEB
:104F300070BD53EC182B51EC100BFBF7C7F994ED37
:104F40000A1B53EC112BFBF790FB53EC182BFBF7D0
:104F5000BDF994ED081B53EC112BFBF786FB41ECDC
:104F6000100B53EC182B51EC100BFBF7AFF994ED31
:104F7000061B53EC112BFBF778FB53EC182BFBF7BC
:104F8000A5F994ED040B53EC102BFBF76EFB41ECF1
:104F9000100B53EC182B51EC100BFBF797F994ED19
:104FA000021B53EC112BFBF760FB53EC182BFBF7A8
:104FB0008DF994ED001B53EC112BFBF756FBBDEC68
:104FC000028B41EC100B70BD31B504462DED040B86
:104FD0002DED0A8BB0EE41BAF0EE61BA0B989DED63
:104FE0000A0B20F00040B0F1795F0DDA51EC100BA4
:104FF000FEF7E6FD042808BF00F0CAF89DED0A0B95
:10500000BDEC0A8B05B030BD53EC102B51EC100BEE
:10501000FBF75CF941EC180B9DED0A0B53EC182BD8
:1050200051EC100BFBF752F941EC190B2C48B0EE88
:10503000480AF0EE680A05217844FFF749FF9FED22
:105040002ACBB0EE40AAF0EE60AA9CB353EC1C2B26
:1050500051EC190BFBF73AF941EC1C0B53EC1A2BF2
:1050600051EC190BFBF732F99FED210B41EC190BB9
:1050700053EC102B51EC1B0BFBF728F953EC192BBD
:10508000FBF794FB53EC182BFBF720F953EC1B2B8D
:10509000FBF78CFB53EC1C2BFBF788FB9DED0A1BED
:1050A00053EC112BFBF785FBBDEC0A8B05B041ECF3
:1050B000100B30BDFFE753EC1A2B51EC180BFBF72C
:1050C00005F953EC1C2BFBF7D0FA53EC192BFBF72B
:1050D000FDF89DED0A1B53EC112BFBF7C6FAE3E735
:1050E000140E000000000000495555555555C5BF28
:1050F000000000000000E03F9FED070B10B553ECEF
:10510000102B9FED070B51EC100BFBF751F941EC05
:10511000100B10BD000000000000000000000000A7
:10512000000000000000F03F10B553EC102B51ECD4
:10513000100BFBF79AFA41EC100B10BD10B553ECB5
:10514000112B51EC100BFBF790FA41EC100B10BD3A
:105150009FED050B10B553EC102B51EC100BFBF72A
:1051600027F941EC100B10BD00000000000000000A
:105170009FED050B10B553EC102B51EC100BFBF70A
:10518000A5F841EC100B10BD0000000000000070FD
:105190009FED050B10B553EC102B51EC100BFBF7EA
:1051A00095F841EC100B10BD00000000000000104D
:1051B00002E008C8121F08C1002AFAD170477047E0
:1051C000002001E001C1121F002AFBD1704700003E
:1051D0000149086070470000900000202DE9FF5F42
:1051E00082B00021DDE90430020DDDF840B0034358
:1051F00018D044F61050A2F2FF3242431514119811
:1052000001281FD0A5EB0B00401C5FEA000A4FF0FD
:1052100000064E4FDFF83891B046504615D5CAF11A
:10522000000413E0119801244AA3012801D16FEA78
:105230000B010298119AC0E90031C0E9024206B0A0
:10524000BDE8F09FCBF10000DFE704460021404AB3
:10525000491842EB0450CDE9001012E0E00707D0F6
:1052600032463B4640464946FBF730F88046894681
:1052700032463B4610461946FBF728F806460F46CD
:105280006410002CEAD1DDE90401DDE90023BAF164
:10529000000F06DAFBF71AF842464B46FBF716F802
:1052A00005E0FBF785F842464B46FBF781F80446DC
:1052B0000E460022284BFBF7AFFA03D84FF0FF3021
:1052C000014607E00022254B20463146FBF7CDF989
:1052D000FBF789FA102409E0002C0ADB0A220023DC
:1052E000FAF798FF039B30321A55641E50EA010208
:1052F000F2D1641C039AC4F111031444119A012AD7
:1053000003D0012208430DD10AE0084304D0002055
:105310004FF0110B119072E7A3EB0B056D1E0DE022
:105320005B4504DD4FF0000205F1010504E003DAFE
:105330004FF00002A5F10105002AECD00298119966
:10534000C0E90231C0E9004579E7000000001440DF
:105350000000F03F300000000000F0430000E03F9C
:105360002DE9FF4F95B09A46884606460025EEE1A6
:10537000252877D100242746F94A0121039400E02B
:10538000044316F8013F203B01FA03F01042F7D125
:1053900030782A2811D06FF02F033078A0F1300236
:1053A000092A16D8039A44F0020402EB820203EBA6
:1053B00042021044761C0390EFE758F8042B039246
:1053C000002A03DA504244F40054039044F00204EB
:1053D000761C30782E2816D116F8010F44F00404FC
:1053E0002A280DD06FF02F023078A0F13003092B5E
:1053F00009D807EB870302EB4303C718761CF3E7D2
:1054000058F8047B761C30786C280FD006DC4C28CA
:1054100017D068280DD06A2814D104E0742810D061
:105420007A280FD10DE044F400140AE044F480140B
:1054300001E044F440147278824202D104F58014F1
:10544000761C761C307866280BD013DC582877D071
:1054500009DC002875D04528F6D04628F4D0472826
:105460001AD193E118E0632835D0642879D06528F3
:1054700012D18BE1702873D008DC6728F1D069283D
:105480006FD06E280DD06F2806D1ACE073282CD0D9
:10549000752874D0782853D05246179990476D1CC0
:1054A00054E1C4F30250022809D003280DD0D8F8E3
:1054B000001004280DD00D6008F1040846E1D8F86A
:1054C0000010EA17C1E90052F6E7D8F800100D8085
:1054D000F2E70D70F0E718F8041B8DF800100020BB
:1054E0008DF80100EB46012003E058F804BB4FF0B3
:1054F000FF3061074FF0000102D40DE009F1010116
:105500008946B9420FDA8145F8DB1BF809100029FA
:10551000F4D108E009F1010189468142FADB1BF868
:1055200009100029F6D103985346A0EB090721463C
:105530003846179A00F080FA284400EB090507E086
:1055400044E008E10DE01BF8010B52461799904723
:10555000B9F10109F7D2534621463846179AF2E0CD
:1055600039E00A21C4F302524FF0000B0091022AE5
:1055700006D058F8040BC117032A09D00AE023E02B
:1055800008F1070020F00702F2E80201904605E06A
:1055900000B2C117042A01D140B2C117002906DAAE
:1055A0000A460021404261EB02012D2202E0220561
:1055B00004D52B228DF80420012203E0E20701D05C
:1055C0002022F7E7914657E00A2100E010214FF032
:1055D000000B00910BE010214FF0000B44F004048D
:1055E0000827009103E008204FF0000B0090C4F35F
:1055F0000252022A05D058F8040B0021032A08D0D1
:1056000008E008F1070020F00702F2E802019046E6
:1056100003E080B2042A00D1C0B24FF00009220793
:105620002AD53278702A07D0DDF800C08CF0100C33
:105630005CEA0B0C05D00EE040228DF8042001221C
:1056400008E050EA010306D030238DF804308DF8CD
:10565000052002229146009B83F0080353EA0B03C6
:105660000AD150EA010201D1620705D530228DF836
:1056700004204FF001097F1E3278582A04D039A245
:105680000C920CAA02920BE03BA2F9E75B46009A4F
:10569000FAF7C0FD0C9B9B5C029A521E029213709B
:1056A00050EA0102F2D1029804A9081A00F1200B75
:1056B000600702D524F4803400E001275F4502DD55
:1056C000A7EB0B0000E0002000EB0B01009003981B
:1056D0004944401A0390E00306D453462146179AE2
:1056E000039800F0A9F90544002706E001A85246F6
:1056F000C05D179990476D1C7F1C4F45F6DBE0039A
:105700000CD553462146179A039800F095F90544A5
:1057100004E030205246179990476D1C0099481EAE
:1057200000900029F5DC08E00298029952460078C2
:10573000491C0291179990476D1CBBF10001ABF118
:10574000010BF1DC5BE100F065F90544761C307873
:1057500000287FF40DAE19B02846BDE8F08F000098
:105760000928010030313233343536373839616237
:1057700063646566000000003031323334353637FB
:10578000383941424344454600000000600700D4D8
:10579000062708F1070020F00700F0E80223804602
:1057A00003F0004C5FEA0C0001D097A009E020054F
:1057B00001D596A005E0E00701D095A001E0AFF289
:1057C0004C001390307823F0004365280CD006DCA1
:1057D000452809D046281DD047287FD13BE06628C0
:1057E00018D067287AD136E00021112F01DB112073
:1057F00000E0781CCDE9000104A90CA8FFF7EEFC3D
:10580000DDE90D010C9A4FF0000B07F10109109230
:1058100000914EE04FF000400097CDE9011004A93F
:105820000CA8FFF7DBFCDDE90D020C9B0F994FF094
:10583000000B91461093009211B9791C00EB0109FD
:10584000B7EB090003D4C0F1FF3B07F10109A9EB55
:105850000700019042E0012F00DA01270021112FFB
:1058600001DD112000E03846CDE9000104A90CA8B3
:10587000FFF7B4FCDDE90D010C9A00914FF0000B2D
:10588000B946109221070FD4009A4A4503DA91468F
:1058900001E0A9F10109B9F1010F05DD109AA9F1A3
:1058A0000101515C3029F4D0B84202DA10F1040F42
:1058B00003DA0121CDE9011010E0002803DC834464
:1058C000A9EB000102E0411C494500DD8946A0EB3F
:1058D0000B00401C01904FF000400290200705D4BF
:1058E0000198484502DB4FF0FF30019000208DF811
:1058F0004B0002980DF14B07B0F1004F25D002206C
:105900000C902B200D90029800280CDA4042029057
:105910002D200D9007E00A210298FAF714FE30318D
:10592000029007F8011D0C99481E0C900029F2DC2A
:1059300002980028EFD1791E0D980870307800F099
:10594000200040F0450007F8020D11A8C01BC01D43
:1059500002901398007800B1012000EB0901019832
:1059600001EBE071029801440398401A401E039035
:10597000E00306D453462146179A039800F05CF8DA
:1059800005441398007818B15246179990476D1C3A
:10599000E00323D553462146179A039800F04CF8AC
:1059A00005441BE0BBF1000F07DB0098584504DD00
:1059B0001098179910F80B0001E017993020524603
:1059C000904701980BF1010B401E05F10105019074
:1059D00004D12E205246179990476D1CB9F1000151
:1059E000A9F10109DEDC05E017F8010B5246179911
:1059F00090476D1C0299481E02900029F4DC534622
:105A00002146179A03989EE62D0000002B00000007
:105A1000200000002DE9F041044600251E461746EF
:105A2000880404D405E039462020B0476D1C641E6C
:105A3000F9D52846BDE8F0812DE9F041044600255E
:105A40001E469046C80301D5302700E02027880471
:105A500004D505E041463846B0476D1C641EF9D5B3
:105A60002846BDE8F0814A68002A06D00A68531C1F
:105A70000B6010704868401E4860704700B591B0D8
:105A80001CA240216846FEF781F86846FAF717FC29
:105A900082B2642369461E48FCF702FF1D4800F0ED
:105AA00077F81D4800F074F81CA240216846FEF704
:105AB0006DF86846FAF703FC82B26423694614481D
:105AC000FCF7EEFE4FF4006212491C48FBF78CFD18
:105AD00003461BA240216846FEF758F86846FAF7CD
